{
  "contractName": "TournamentV1",
  "abi": [
    {
      "inputs": [
        {
          "internalType": "address",
          "name": "_president",
          "type": "address"
        }
      ],
      "stateMutability": "nonpayable",
      "type": "constructor"
    },
    {
      "anonymous": false,
      "inputs": [
        {
          "indexed": true,
          "internalType": "uint256",
          "name": "matchId",
          "type": "uint256"
        },
        {
          "indexed": true,
          "internalType": "address",
          "name": "sender",
          "type": "address"
        },
        {
          "indexed": false,
          "internalType": "uint32",
          "name": "score",
          "type": "uint32"
        },
        {
          "indexed": false,
          "internalType": "uint256",
          "name": "amount",
          "type": "uint256"
        }
      ],
      "name": "BetScore",
      "type": "event"
    },
    {
      "anonymous": false,
      "inputs": [
        {
          "indexed": true,
          "internalType": "uint256",
          "name": "matchId",
          "type": "uint256"
        },
        {
          "indexed": true,
          "internalType": "address",
          "name": "sender",
          "type": "address"
        },
        {
          "indexed": false,
          "internalType": "uint256",
          "name": "amount",
          "type": "uint256"
        }
      ],
      "name": "Claim",
      "type": "event"
    },
    {
      "anonymous": false,
      "inputs": [
        {
          "indexed": false,
          "internalType": "uint256",
          "name": "amount",
          "type": "uint256"
        }
      ],
      "name": "ClaimTreasury",
      "type": "event"
    },
    {
      "anonymous": false,
      "inputs": [
        {
          "indexed": true,
          "internalType": "uint256",
          "name": "matchId",
          "type": "uint256"
        },
        {
          "indexed": true,
          "internalType": "address",
          "name": "umpire",
          "type": "address"
        },
        {
          "indexed": false,
          "internalType": "uint256",
          "name": "deadline",
          "type": "uint256"
        }
      ],
      "name": "DeadlineUpdated",
      "type": "event"
    },
    {
      "anonymous": false,
      "inputs": [
        {
          "indexed": true,
          "internalType": "uint256",
          "name": "matchId",
          "type": "uint256"
        },
        {
          "indexed": true,
          "internalType": "address",
          "name": "umpire",
          "type": "address"
        },
        {
          "indexed": false,
          "internalType": "uint32",
          "name": "winningScore",
          "type": "uint32"
        },
        {
          "indexed": false,
          "internalType": "uint256",
          "name": "rewardAmount",
          "type": "uint256"
        },
        {
          "indexed": false,
          "internalType": "uint256",
          "name": "treasuryAmount",
          "type": "uint256"
        }
      ],
      "name": "MatchCompleted",
      "type": "event"
    },
    {
      "anonymous": false,
      "inputs": [
        {
          "indexed": true,
          "internalType": "uint256",
          "name": "matchId",
          "type": "uint256"
        },
        {
          "indexed": true,
          "internalType": "address",
          "name": "umpire",
          "type": "address"
        },
        {
          "indexed": false,
          "internalType": "string",
          "name": "uri",
          "type": "string"
        },
        {
          "indexed": false,
          "internalType": "uint32",
          "name": "minScore",
          "type": "uint32"
        },
        {
          "indexed": false,
          "internalType": "uint32",
          "name": "scoreMultiple",
          "type": "uint32"
        },
        {
          "indexed": false,
          "internalType": "uint8",
          "name": "rewardRate",
          "type": "uint8"
        },
        {
          "indexed": false,
          "internalType": "uint256",
          "name": "deadline",
          "type": "uint256"
        }
      ],
      "name": "MatchCreated",
      "type": "event"
    },
    {
      "anonymous": false,
      "inputs": [
        {
          "indexed": true,
          "internalType": "uint256",
          "name": "matchId",
          "type": "uint256"
        },
        {
          "indexed": true,
          "internalType": "address",
          "name": "umpire",
          "type": "address"
        }
      ],
      "name": "MatchForfeited",
      "type": "event"
    },
    {
      "anonymous": false,
      "inputs": [
        {
          "indexed": false,
          "internalType": "uint256",
          "name": "minBetAmount",
          "type": "uint256"
        }
      ],
      "name": "MinimumBetAmountUpdated",
      "type": "event"
    },
    {
      "anonymous": false,
      "inputs": [
        {
          "indexed": false,
          "internalType": "address",
          "name": "account",
          "type": "address"
        }
      ],
      "name": "Paused",
      "type": "event"
    },
    {
      "anonymous": false,
      "inputs": [
        {
          "indexed": true,
          "internalType": "uint256",
          "name": "matchId",
          "type": "uint256"
        },
        {
          "indexed": true,
          "internalType": "address",
          "name": "sender",
          "type": "address"
        },
        {
          "indexed": false,
          "internalType": "uint256",
          "name": "amount",
          "type": "uint256"
        }
      ],
      "name": "Refund",
      "type": "event"
    },
    {
      "anonymous": false,
      "inputs": [
        {
          "indexed": true,
          "internalType": "uint256",
          "name": "matchId",
          "type": "uint256"
        },
        {
          "indexed": false,
          "internalType": "uint8",
          "name": "rewardRate",
          "type": "uint8"
        }
      ],
      "name": "RewardRateUpdated",
      "type": "event"
    },
    {
      "anonymous": false,
      "inputs": [
        {
          "indexed": true,
          "internalType": "bytes32",
          "name": "role",
          "type": "bytes32"
        },
        {
          "indexed": true,
          "internalType": "bytes32",
          "name": "previousAdminRole",
          "type": "bytes32"
        },
        {
          "indexed": true,
          "internalType": "bytes32",
          "name": "newAdminRole",
          "type": "bytes32"
        }
      ],
      "name": "RoleAdminChanged",
      "type": "event"
    },
    {
      "anonymous": false,
      "inputs": [
        {
          "indexed": true,
          "internalType": "bytes32",
          "name": "role",
          "type": "bytes32"
        },
        {
          "indexed": true,
          "internalType": "address",
          "name": "account",
          "type": "address"
        },
        {
          "indexed": true,
          "internalType": "address",
          "name": "sender",
          "type": "address"
        }
      ],
      "name": "RoleGranted",
      "type": "event"
    },
    {
      "anonymous": false,
      "inputs": [
        {
          "indexed": true,
          "internalType": "bytes32",
          "name": "role",
          "type": "bytes32"
        },
        {
          "indexed": true,
          "internalType": "address",
          "name": "account",
          "type": "address"
        },
        {
          "indexed": true,
          "internalType": "address",
          "name": "sender",
          "type": "address"
        }
      ],
      "name": "RoleRevoked",
      "type": "event"
    },
    {
      "anonymous": false,
      "inputs": [
        {
          "indexed": false,
          "internalType": "address",
          "name": "account",
          "type": "address"
        }
      ],
      "name": "Unpaused",
      "type": "event"
    },
    {
      "inputs": [],
      "name": "DEFAULT_ADMIN_ROLE",
      "outputs": [
        {
          "internalType": "bytes32",
          "name": "",
          "type": "bytes32"
        }
      ],
      "stateMutability": "view",
      "type": "function",
      "constant": true
    },
    {
      "inputs": [],
      "name": "TOTAL_RATE",
      "outputs": [
        {
          "internalType": "uint8",
          "name": "",
          "type": "uint8"
        }
      ],
      "stateMutability": "view",
      "type": "function",
      "constant": true
    },
    {
      "inputs": [],
      "name": "UMPIRE_ROLE",
      "outputs": [
        {
          "internalType": "bytes32",
          "name": "",
          "type": "bytes32"
        }
      ],
      "stateMutability": "view",
      "type": "function",
      "constant": true
    },
    {
      "inputs": [
        {
          "internalType": "bytes32",
          "name": "role",
          "type": "bytes32"
        }
      ],
      "name": "getRoleAdmin",
      "outputs": [
        {
          "internalType": "bytes32",
          "name": "",
          "type": "bytes32"
        }
      ],
      "stateMutability": "view",
      "type": "function",
      "constant": true
    },
    {
      "inputs": [
        {
          "internalType": "bytes32",
          "name": "role",
          "type": "bytes32"
        },
        {
          "internalType": "uint256",
          "name": "index",
          "type": "uint256"
        }
      ],
      "name": "getRoleMember",
      "outputs": [
        {
          "internalType": "address",
          "name": "",
          "type": "address"
        }
      ],
      "stateMutability": "view",
      "type": "function",
      "constant": true
    },
    {
      "inputs": [
        {
          "internalType": "bytes32",
          "name": "role",
          "type": "bytes32"
        }
      ],
      "name": "getRoleMemberCount",
      "outputs": [
        {
          "internalType": "uint256",
          "name": "",
          "type": "uint256"
        }
      ],
      "stateMutability": "view",
      "type": "function",
      "constant": true
    },
    {
      "inputs": [
        {
          "internalType": "bytes32",
          "name": "role",
          "type": "bytes32"
        },
        {
          "internalType": "address",
          "name": "account",
          "type": "address"
        }
      ],
      "name": "grantRole",
      "outputs": [],
      "stateMutability": "nonpayable",
      "type": "function"
    },
    {
      "inputs": [
        {
          "internalType": "bytes32",
          "name": "role",
          "type": "bytes32"
        },
        {
          "internalType": "address",
          "name": "account",
          "type": "address"
        }
      ],
      "name": "hasRole",
      "outputs": [
        {
          "internalType": "bool",
          "name": "",
          "type": "bool"
        }
      ],
      "stateMutability": "view",
      "type": "function",
      "constant": true
    },
    {
      "inputs": [
        {
          "internalType": "uint256",
          "name": "",
          "type": "uint256"
        }
      ],
      "name": "matches",
      "outputs": [
        {
          "internalType": "string",
          "name": "uri",
          "type": "string"
        },
        {
          "internalType": "uint32",
          "name": "minScore",
          "type": "uint32"
        },
        {
          "internalType": "uint32",
          "name": "scoreMultiple",
          "type": "uint32"
        },
        {
          "internalType": "uint32",
          "name": "winningScore",
          "type": "uint32"
        },
        {
          "internalType": "uint8",
          "name": "rewardRate",
          "type": "uint8"
        },
        {
          "internalType": "enum TournamentV1.MatchStage",
          "name": "stage",
          "type": "uint8"
        },
        {
          "internalType": "uint256",
          "name": "deadline",
          "type": "uint256"
        },
        {
          "internalType": "uint256",
          "name": "totalAmount",
          "type": "uint256"
        },
        {
          "internalType": "uint256",
          "name": "rewardAmount",
          "type": "uint256"
        }
      ],
      "stateMutability": "view",
      "type": "function",
      "constant": true
    },
    {
      "inputs": [],
      "name": "minBetAmount",
      "outputs": [
        {
          "internalType": "uint256",
          "name": "",
          "type": "uint256"
        }
      ],
      "stateMutability": "view",
      "type": "function",
      "constant": true
    },
    {
      "inputs": [],
      "name": "paused",
      "outputs": [
        {
          "internalType": "bool",
          "name": "",
          "type": "bool"
        }
      ],
      "stateMutability": "view",
      "type": "function",
      "constant": true
    },
    {
      "inputs": [],
      "name": "president",
      "outputs": [
        {
          "internalType": "address",
          "name": "",
          "type": "address"
        }
      ],
      "stateMutability": "view",
      "type": "function",
      "constant": true
    },
    {
      "inputs": [
        {
          "internalType": "bytes32",
          "name": "role",
          "type": "bytes32"
        },
        {
          "internalType": "address",
          "name": "account",
          "type": "address"
        }
      ],
      "name": "renounceRole",
      "outputs": [],
      "stateMutability": "nonpayable",
      "type": "function"
    },
    {
      "inputs": [
        {
          "internalType": "bytes32",
          "name": "role",
          "type": "bytes32"
        },
        {
          "internalType": "address",
          "name": "account",
          "type": "address"
        }
      ],
      "name": "revokeRole",
      "outputs": [],
      "stateMutability": "nonpayable",
      "type": "function"
    },
    {
      "inputs": [],
      "name": "rewardRate",
      "outputs": [
        {
          "internalType": "uint8",
          "name": "",
          "type": "uint8"
        }
      ],
      "stateMutability": "view",
      "type": "function",
      "constant": true
    },
    {
      "inputs": [
        {
          "internalType": "address",
          "name": "_president",
          "type": "address"
        }
      ],
      "name": "setPresident",
      "outputs": [],
      "stateMutability": "nonpayable",
      "type": "function"
    },
    {
      "inputs": [
        {
          "internalType": "bytes4",
          "name": "interfaceId",
          "type": "bytes4"
        }
      ],
      "name": "supportsInterface",
      "outputs": [
        {
          "internalType": "bool",
          "name": "",
          "type": "bool"
        }
      ],
      "stateMutability": "view",
      "type": "function",
      "constant": true
    },
    {
      "inputs": [],
      "name": "treasuryAmount",
      "outputs": [
        {
          "internalType": "uint256",
          "name": "",
          "type": "uint256"
        }
      ],
      "stateMutability": "view",
      "type": "function",
      "constant": true
    },
    {
      "inputs": [
        {
          "internalType": "string",
          "name": "_uri",
          "type": "string"
        },
        {
          "internalType": "uint32",
          "name": "_minScore",
          "type": "uint32"
        },
        {
          "internalType": "uint32",
          "name": "_scoreMultiple",
          "type": "uint32"
        },
        {
          "internalType": "uint256",
          "name": "_deadline",
          "type": "uint256"
        }
      ],
      "name": "createMatch",
      "outputs": [
        {
          "internalType": "uint256",
          "name": "",
          "type": "uint256"
        }
      ],
      "stateMutability": "nonpayable",
      "type": "function"
    },
    {
      "inputs": [
        {
          "internalType": "uint256",
          "name": "_matchId",
          "type": "uint256"
        },
        {
          "internalType": "uint256",
          "name": "_deadline",
          "type": "uint256"
        }
      ],
      "name": "updateDeadline",
      "outputs": [],
      "stateMutability": "nonpayable",
      "type": "function"
    },
    {
      "inputs": [
        {
          "internalType": "uint256",
          "name": "_matchId",
          "type": "uint256"
        }
      ],
      "name": "forfeitMatch",
      "outputs": [],
      "stateMutability": "nonpayable",
      "type": "function"
    },
    {
      "inputs": [
        {
          "internalType": "uint256",
          "name": "_matchId",
          "type": "uint256"
        },
        {
          "internalType": "uint32",
          "name": "_winningScore",
          "type": "uint32"
        }
      ],
      "name": "endMatch",
      "outputs": [],
      "stateMutability": "nonpayable",
      "type": "function"
    },
    {
      "inputs": [
        {
          "internalType": "uint256",
          "name": "_matchId",
          "type": "uint256"
        },
        {
          "internalType": "uint32",
          "name": "_score",
          "type": "uint32"
        }
      ],
      "name": "betScore",
      "outputs": [],
      "stateMutability": "payable",
      "type": "function",
      "payable": true
    },
    {
      "inputs": [
        {
          "internalType": "uint256",
          "name": "_matchId",
          "type": "uint256"
        }
      ],
      "name": "claim",
      "outputs": [],
      "stateMutability": "nonpayable",
      "type": "function"
    },
    {
      "inputs": [
        {
          "internalType": "uint256",
          "name": "_matchId",
          "type": "uint256"
        },
        {
          "internalType": "address",
          "name": "_user",
          "type": "address"
        }
      ],
      "name": "claimable",
      "outputs": [
        {
          "internalType": "bool",
          "name": "",
          "type": "bool"
        }
      ],
      "stateMutability": "view",
      "type": "function",
      "constant": true
    },
    {
      "inputs": [
        {
          "internalType": "uint256",
          "name": "_matchId",
          "type": "uint256"
        },
        {
          "internalType": "uint32",
          "name": "_score",
          "type": "uint32"
        }
      ],
      "name": "getRewardMultiplier",
      "outputs": [
        {
          "internalType": "uint256",
          "name": "",
          "type": "uint256"
        }
      ],
      "stateMutability": "view",
      "type": "function",
      "constant": true
    },
    {
      "inputs": [
        {
          "internalType": "uint256",
          "name": "_matchId",
          "type": "uint256"
        }
      ],
      "name": "isHouseWin",
      "outputs": [
        {
          "internalType": "bool",
          "name": "",
          "type": "bool"
        }
      ],
      "stateMutability": "view",
      "type": "function",
      "constant": true
    },
    {
      "inputs": [
        {
          "internalType": "uint256",
          "name": "_matchId",
          "type": "uint256"
        }
      ],
      "name": "refund",
      "outputs": [],
      "stateMutability": "nonpayable",
      "type": "function"
    },
    {
      "inputs": [],
      "name": "getMatchCount",
      "outputs": [
        {
          "internalType": "uint256",
          "name": "",
          "type": "uint256"
        }
      ],
      "stateMutability": "view",
      "type": "function",
      "constant": true
    },
    {
      "inputs": [
        {
          "internalType": "uint256",
          "name": "_matchId",
          "type": "uint256"
        },
        {
          "internalType": "uint256",
          "name": "_score",
          "type": "uint256"
        }
      ],
      "name": "getBetsAtScore",
      "outputs": [
        {
          "internalType": "uint256",
          "name": "",
          "type": "uint256"
        }
      ],
      "stateMutability": "view",
      "type": "function",
      "constant": true
    },
    {
      "inputs": [
        {
          "internalType": "uint256",
          "name": "_matchId",
          "type": "uint256"
        }
      ],
      "name": "isDeadlinePassed",
      "outputs": [
        {
          "internalType": "bool",
          "name": "",
          "type": "bool"
        }
      ],
      "stateMutability": "view",
      "type": "function",
      "constant": true
    },
    {
      "inputs": [
        {
          "internalType": "address",
          "name": "_user",
          "type": "address"
        },
        {
          "internalType": "uint256",
          "name": "_cursor",
          "type": "uint256"
        },
        {
          "internalType": "uint256",
          "name": "_size",
          "type": "uint256"
        }
      ],
      "name": "getUserMatches",
      "outputs": [
        {
          "internalType": "uint256[]",
          "name": "",
          "type": "uint256[]"
        },
        {
          "internalType": "uint256",
          "name": "",
          "type": "uint256"
        }
      ],
      "stateMutability": "view",
      "type": "function",
      "constant": true
    },
    {
      "inputs": [
        {
          "internalType": "uint8",
          "name": "_rewardRate",
          "type": "uint8"
        }
      ],
      "name": "setRewardRate",
      "outputs": [],
      "stateMutability": "nonpayable",
      "type": "function"
    },
    {
      "inputs": [
        {
          "internalType": "uint256",
          "name": "_minBetAmount",
          "type": "uint256"
        }
      ],
      "name": "setMinBetAmount",
      "outputs": [],
      "stateMutability": "nonpayable",
      "type": "function"
    },
    {
      "inputs": [
        {
          "internalType": "uint256",
          "name": "_amount",
          "type": "uint256"
        }
      ],
      "name": "claimTreasury",
      "outputs": [],
      "stateMutability": "nonpayable",
      "type": "function"
    },
    {
      "inputs": [],
      "name": "pause",
      "outputs": [],
      "stateMutability": "nonpayable",
      "type": "function"
    },
    {
      "inputs": [],
      "name": "unpause",
      "outputs": [],
      "stateMutability": "nonpayable",
      "type": "function"
    }
  ],
  "bytecode": "0x6080604052605a600760006101000a81548160ff021916908360ff160217905550662386f26fc100006008553480156200003857600080fd5b5060405162005b4c38038062005b4c83398181016040528101906200005e9190620003b7565b806000600260006101000a81548160ff0219169083151502179055506200008f6000801b826200010a60201b60201c565b620000c17f66778c815bca9067617f4f64e430a0a08f70ab5dd2654c328c1f658d54a8c833826200010a60201b60201c565b80600260016101000a81548173ffffffffffffffffffffffffffffffffffffffff021916908373ffffffffffffffffffffffffffffffffffffffff160217905550505062000431565b6200012182826200015260201b620030791760201c565b6200014d81600160008581526020019081526020016000206200016860201b620030871790919060201c565b505050565b620001648282620001a060201b60201c565b5050565b600062000198836000018373ffffffffffffffffffffffffffffffffffffffff1660001b6200029160201b60201c565b905092915050565b620001b282826200030b60201b60201c565b6200028d57600160008084815260200190815260200160002060000160008373ffffffffffffffffffffffffffffffffffffffff1673ffffffffffffffffffffffffffffffffffffffff16815260200190815260200160002060006101000a81548160ff021916908315150217905550620002326200037560201b60201c565b73ffffffffffffffffffffffffffffffffffffffff168173ffffffffffffffffffffffffffffffffffffffff16837f2f8788117e7eff1d82e926ec794901d17c78024a50270940304540a733656f0d60405160405180910390a45b5050565b6000620002a583836200037d60201b60201c565b6200030057826000018290806001815401808255809150506001900390600052602060002001600090919091909150558260000180549050836001016000848152602001908152602001600020819055506001905062000305565b600090505b92915050565b600080600084815260200190815260200160002060000160008373ffffffffffffffffffffffffffffffffffffffff1673ffffffffffffffffffffffffffffffffffffffff16815260200190815260200160002060009054906101000a900460ff16905092915050565b600033905090565b600080836001016000848152602001908152602001600020541415905092915050565b600081519050620003b18162000417565b92915050565b600060208284031215620003ca57600080fd5b6000620003da84828501620003a0565b91505092915050565b6000620003f082620003f7565b9050919050565b600073ffffffffffffffffffffffffffffffffffffffff82169050919050565b6200042281620003e3565b81146200042e57600080fd5b50565b61570b80620004416000396000f3fe6080604052600436106102195760003560e01c80637b0a47ee11610123578063a217fddf116100ab578063d547741f1161006f578063d547741f14610822578063dd132a7a1461084b578063ecf1d9f914610867578063fa40df0c146108a5578063fa968eea146108ce57610219565b8063a217fddf14610729578063a758513314610754578063b29c299b14610791578063b9424b43146107bc578063ca15c873146107e557610219565b80638c4f7dae116100f25780638c4f7dae1461061e5780639010d07c1461064957806391d14854146106865780639f9357d1146106c3578063a0c7f71c146106ec57610219565b80637b0a47ee1461058a5780638456cb59146105b5578063899b184f146105cc5780638a0142b5146105f557610219565b8063379607f5116101a65780635c975abb116101755780635c975abb146104a557806362cc05fd146104d057806363ca345e146104fb5780636c1885931461053857806376d480ff1461056157610219565b8063379607f5146103e35780633c80fa231461040c5780633f4ba83a146104495780634768d4ef1461046057610219565b8063278ecde1116101ed578063278ecde1146103125780632f2ff15d1461033b578063324a13761461036457806336568abe1461038f578063368acb09146103b857610219565b8062f7df8b1461021e57806301ffc9a71461025b57806314b1287214610298578063248a9ca3146102d5575b600080fd5b34801561022a57600080fd5b506102456004803603810190610240919061400a565b6108f9565b6040516102529190614741565b60405180910390f35b34801561026757600080fd5b50610282600480360381019061027d9190613f61565b610975565b60405161028f9190614741565b60405180910390f35b3480156102a457600080fd5b506102bf60048036038101906102ba91906140ab565b6109ef565b6040516102cc9190614bc7565b60405180910390f35b3480156102e157600080fd5b506102fc60048036038101906102f79190613ec0565b610b26565b604051610309919061475c565b60405180910390f35b34801561031e57600080fd5b506103396004803603810190610334919061400a565b610b45565b005b34801561034757600080fd5b50610362600480360381019061035d9190613ee9565b610f07565b005b34801561037057600080fd5b50610379610f3b565b60405161038691906146f6565b60405180910390f35b34801561039b57600080fd5b506103b660048036038101906103b19190613ee9565b610f61565b005b3480156103c457600080fd5b506103cd610f95565b6040516103da9190614bc7565b60405180910390f35b3480156103ef57600080fd5b5061040a6004803603810190610405919061400a565b610f9b565b005b34801561041857600080fd5b50610433600480360381019061042e9190613f8a565b6113ed565b6040516104409190614bc7565b60405180910390f35b34801561045557600080fd5b5061045e6116f9565b005b34801561046c57600080fd5b506104876004803603810190610482919061400a565b6117ba565b60405161049c99989796959493929190614799565b60405180910390f35b3480156104b157600080fd5b506104ba6118da565b6040516104c79190614741565b60405180910390f35b3480156104dc57600080fd5b506104e56118f1565b6040516104f2919061475c565b60405180910390f35b34801561050757600080fd5b50610522600480360381019061051d919061406f565b611915565b60405161052f9190614bc7565b60405180910390f35b34801561054457600080fd5b5061055f600480360381019061055a919061400a565b611947565b005b34801561056d57600080fd5b50610588600480360381019061058391906140ab565b611a64565b005b34801561059657600080fd5b5061059f611e2d565b6040516105ac9190614c42565b60405180910390f35b3480156105c157600080fd5b506105ca611e40565b005b3480156105d857600080fd5b506105f360048036038101906105ee919061406f565b611f02565b005b34801561060157600080fd5b5061061c6004803603810190610617919061400a565b6120d6565b005b34801561062a57600080fd5b506106336122d2565b6040516106409190614bc7565b60405180910390f35b34801561065557600080fd5b50610670600480360381019061066b9190613f25565b6122e3565b60405161067d91906146f6565b60405180910390f35b34801561069257600080fd5b506106ad60048036038101906106a89190613ee9565b612312565b6040516106ba9190614741565b60405180910390f35b3480156106cf57600080fd5b506106ea60048036038101906106e5919061400a565b61237c565b005b3480156106f857600080fd5b50610713600480360381019061070e9190614033565b612516565b6040516107209190614741565b60405180910390f35b34801561073557600080fd5b5061073e6125d3565b60405161074b919061475c565b60405180910390f35b34801561076057600080fd5b5061077b6004803603810190610776919061400a565b6125da565b6040516107889190614741565b60405180910390f35b34801561079d57600080fd5b506107a66126ba565b6040516107b39190614c42565b60405180910390f35b3480156107c857600080fd5b506107e360048036038101906107de9190613e48565b6126bf565b005b3480156107f157600080fd5b5061080c60048036038101906108079190613ec0565b612719565b6040516108199190614bc7565b60405180910390f35b34801561082e57600080fd5b5061084960048036038101906108449190613ee9565b61273d565b005b610865600480360381019061086091906140ab565b612771565b005b34801561087357600080fd5b5061088e60048036038101906108899190613e71565b612d3d565b60405161089c929190614711565b60405180910390f35b3480156108b157600080fd5b506108cc60048036038101906108c791906140e7565b612f01565b005b3480156108da57600080fd5b506108e3613073565b6040516108f09190614bc7565b60405180910390f35b600081600081118015610915575061091160046130b7565b8111155b610954576040517f08c379a000000000000000000000000000000000000000000000000000000000815260040161094b90614a87565b60405180910390fd5b60036000848152602001908152602001600020600201544211915050919050565b60007f5a05180f000000000000000000000000000000000000000000000000000000007bffffffffffffffffffffffffffffffffffffffffffffffffffffffff1916827bffffffffffffffffffffffffffffffffffffffffffffffffffffffff191614806109e857506109e7826130c5565b5b9050919050565b600082600081118015610a0b5750610a0760046130b7565b8111155b610a4a576040517f08c379a0000000000000000000000000000000000000000000000000000000008152600401610a4190614a87565b60405180910390fd5b60006003600086815260200190815260200160002090506000610a958260050160008763ffffffff16815260200190815260200160002054836003015461313f90919063ffffffff16565b90506000610ad6606460ff16610ac885600101600c9054906101000a900460ff1660ff168561315590919063ffffffff16565b61316b90919063ffffffff16565b9050610b1a8360050160008863ffffffff16815260200190815260200160002054610b0c6127108461315590919063ffffffff16565b61316b90919063ffffffff16565b94505050505092915050565b6000806000838152602001908152602001600020600101549050919050565b610b643373ffffffffffffffffffffffffffffffffffffffff16613181565b15610ba4576040517f08c379a0000000000000000000000000000000000000000000000000000000008152600401610b9b90614a47565b60405180910390fd5b3273ffffffffffffffffffffffffffffffffffffffff163373ffffffffffffffffffffffffffffffffffffffff1614610c12576040517f08c379a0000000000000000000000000000000000000000000000000000000008152600401610c0990614b47565b60405180910390fd5b80600081118015610c2c5750610c2860046130b7565b8111155b610c6b576040517f08c379a0000000000000000000000000000000000000000000000000000000008152600401610c6290614a87565b60405180910390fd5b816003806003811115610ca7577f4e487b7100000000000000000000000000000000000000000000000000000000600052602160045260246000fd5b60036000848152602001908152602001600020600101600d9054906101000a900460ff166003811115610d03577f4e487b7100000000000000000000000000000000000000000000000000000000600052602160045260246000fd5b14610d43576040517f08c379a0000000000000000000000000000000000000000000000000000000008152600401610d3a90614947565b60405180910390fd5b6000600560008681526020019081526020016000206000610d62613194565b73ffffffffffffffffffffffffffffffffffffffff1673ffffffffffffffffffffffffffffffffffffffff16815260200190815260200160002090506000816001015411610de5576040517f08c379a0000000000000000000000000000000000000000000000000000000008152600401610ddc90614887565b60405180910390fd5b8060000160009054906101000a900460ff1615610e37576040517f08c379a0000000000000000000000000000000000000000000000000000000008152600401610e2e906148c7565b60405180910390fd5b60018160000160006101000a81548160ff021916908315150217905550610e5c613194565b73ffffffffffffffffffffffffffffffffffffffff166108fc82600101549081150290604051600060405180830381858888f19350505050158015610ea5573d6000803e3d6000fd5b50610eae613194565b73ffffffffffffffffffffffffffffffffffffffff16857f21e12a7cad0da5928167e1084ea4d5fdf8d9af66657a2543a9ac76a0ca0814778360010154604051610ef89190614bc7565b60405180910390a35050505050565b610f11828261319c565b610f36816001600085815260200190815260200160002061308790919063ffffffff16565b505050565b600260019054906101000a900473ffffffffffffffffffffffffffffffffffffffff1681565b610f6b82826131c5565b610f90816001600085815260200190815260200160002061324890919063ffffffff16565b505050565b60095481565b610fba3373ffffffffffffffffffffffffffffffffffffffff16613181565b15610ffa576040517f08c379a0000000000000000000000000000000000000000000000000000000008152600401610ff190614a47565b60405180910390fd5b3273ffffffffffffffffffffffffffffffffffffffff163373ffffffffffffffffffffffffffffffffffffffff1614611068576040517f08c379a000000000000000000000000000000000000000000000000000000000815260040161105f90614b47565b60405180910390fd5b80600081118015611082575061107e60046130b7565b8111155b6110c1576040517f08c379a00000000000000000000000000000000000000000000000000000000081526004016110b890614a87565b60405180910390fd5b8160028060038111156110fd577f4e487b7100000000000000000000000000000000000000000000000000000000600052602160045260246000fd5b60036000848152602001908152602001600020600101600d9054906101000a900460ff166003811115611159577f4e487b7100000000000000000000000000000000000000000000000000000000600052602160045260246000fd5b14611199576040517f08c379a000000000000000000000000000000000000000000000000000000000815260040161119090614947565b60405180910390fd5b60006005600086815260200190815260200160002060006111b8613194565b73ffffffffffffffffffffffffffffffffffffffff1673ffffffffffffffffffffffffffffffffffffffff16815260200190815260200160002090508060000160009054906101000a900460ff1615611246576040517f08c379a000000000000000000000000000000000000000000000000000000000815260040161123d90614a27565b60405180910390fd5b61125785611252613194565b612516565b611296576040517f08c379a000000000000000000000000000000000000000000000000000000000815260040161128d90614a67565b60405180910390fd5b6000600360008781526020019081526020016000209050600061132161130e8360050160008560010160089054906101000a900463ffffffff1663ffffffff168152602001908152602001600020546113008560040154876001015461315590919063ffffffff16565b61316b90919063ffffffff16565b846001015461327890919063ffffffff16565b905060018360000160006101000a81548160ff021916908315150217905550611348613194565b73ffffffffffffffffffffffffffffffffffffffff166108fc829081150290604051600060405180830381858888f1935050505015801561138d573d6000803e3d6000fd5b50611396613194565b73ffffffffffffffffffffffffffffffffffffffff16877f3ed1528b0fdc7c5207c1bf935e34a667e13656b9ed165260c522be0bc544f303836040516113dc9190614bc7565b60405180910390a350505050505050565b60006114207f66778c815bca9067617f4f64e430a0a08f70ab5dd2654c328c1f658d54a8c83361141b613194565b612312565b61145f576040517f08c379a000000000000000000000000000000000000000000000000000000000815260040161145690614b07565b60405180910390fd5b600086869050116114a5576040517f08c379a000000000000000000000000000000000000000000000000000000000815260040161149c906148e7565b60405180910390fd5b60008363ffffffff16116114ee576040517f08c379a00000000000000000000000000000000000000000000000000000000081526004016114e590614967565b60405180910390fd5b60008211611531576040517f08c379a0000000000000000000000000000000000000000000000000000000008152600401611528906149a7565b60405180910390fd5b61153b600461328e565b600061154760046130b7565b905060006003600083815260200190815260200160002090508787826000019190611573929190613cdd565b50858160010160006101000a81548163ffffffff021916908363ffffffff160217905550848160010160046101000a81548163ffffffff021916908363ffffffff16021790555083426115c69190614cd2565b8160020181905550600181600101600d6101000a81548160ff0219169083600381111561161c577f4e487b7100000000000000000000000000000000000000000000000000000000600052602160045260246000fd5b0217905550600760009054906101000a900460ff1681600101600c6101000a81548160ff021916908360ff160217905550611655613194565b73ffffffffffffffffffffffffffffffffffffffff16827f85d162e7b0afd953cecf03b4263c3716fda8e799158e03c33cf1264624d80b37836000018460010160009054906101000a900463ffffffff168560010160049054906101000a900463ffffffff1686600101600c9054906101000a900460ff1687600201546040516116e395949392919061482d565b60405180910390a3819250505095945050505050565b61172a7f66778c815bca9067617f4f64e430a0a08f70ab5dd2654c328c1f658d54a8c833611725613194565b612312565b611769576040517f08c379a000000000000000000000000000000000000000000000000000000000815260040161176090614b07565b60405180910390fd5b6117716118da565b6117b0576040517f08c379a00000000000000000000000000000000000000000000000000000000081526004016117a790614907565b60405180910390fd5b6117b86132a4565b565b60036020528060005260406000206000915090508060000180546117dd90614f38565b80601f016020809104026020016040519081016040528092919081815260200182805461180990614f38565b80156118565780601f1061182b57610100808354040283529160200191611856565b820191906000526020600020905b81548152906001019060200180831161183957829003601f168201915b5050505050908060010160009054906101000a900463ffffffff16908060010160049054906101000a900463ffffffff16908060010160089054906101000a900463ffffffff169080600101600c9054906101000a900460ff169080600101600d9054906101000a900460ff16908060020154908060030154908060040154905089565b6000600260009054906101000a900460ff16905090565b7f66778c815bca9067617f4f64e430a0a08f70ab5dd2654c328c1f658d54a8c83381565b600060036000848152602001908152602001600020600501600083815260200190815260200160002054905092915050565b61194f613194565b73ffffffffffffffffffffffffffffffffffffffff16600260019054906101000a900473ffffffffffffffffffffffffffffffffffffffff1673ffffffffffffffffffffffffffffffffffffffff16146119de576040517f08c379a00000000000000000000000000000000000000000000000000000000081526004016119d590614b87565b60405180910390fd5b60008111611a21576040517f08c379a0000000000000000000000000000000000000000000000000000000008152600401611a1890614a07565b60405180910390fd5b806008819055507f998e655c98d8e4e42d46bb8ac94f89383dee5931159a247e80c58fdd2d4c350f600854604051611a599190614bc7565b60405180910390a150565b611a957f66778c815bca9067617f4f64e430a0a08f70ab5dd2654c328c1f658d54a8c833611a90613194565b612312565b611ad4576040517f08c379a0000000000000000000000000000000000000000000000000000000008152600401611acb90614b07565b60405180910390fd5b816001806003811115611b10577f4e487b7100000000000000000000000000000000000000000000000000000000600052602160045260246000fd5b60036000848152602001908152602001600020600101600d9054906101000a900460ff166003811115611b6c577f4e487b7100000000000000000000000000000000000000000000000000000000600052602160045260246000fd5b14611bac576040517f08c379a0000000000000000000000000000000000000000000000000000000008152600401611ba390614947565b60405180910390fd5b60008363ffffffff1611611bf5576040517f08c379a0000000000000000000000000000000000000000000000000000000008152600401611bec90614ae7565b60405180910390fd5b600060036000868152602001908152602001600020905080600201544211611c52576040517f08c379a0000000000000000000000000000000000000000000000000000000008152600401611c4990614927565b60405180910390fd5b838160010160086101000a81548163ffffffff021916908363ffffffff160217905550600281600101600d6101000a81548160ff02191690836003811115611cc3577f4e487b7100000000000000000000000000000000000000000000000000000000600052602160045260246000fd5b02179055506000611cd3866125da565b15611ce45781600301549050611dac565b6000611d188360050160008863ffffffff16815260200190815260200160002054846003015461313f90919063ffffffff16565b9050611d57606460ff16611d4985600101600c9054906101000a900460ff1660ff168461315590919063ffffffff16565b61316b90919063ffffffff16565b8360040181905550611da8606460ff16611d9a85600101600c9054906101000a900460ff166064611d889190614de7565b60ff168461315590919063ffffffff16565b61316b90919063ffffffff16565b9150505b611dc18160095461327890919063ffffffff16565b600981905550611dcf613194565b73ffffffffffffffffffffffffffffffffffffffff16867fb13e20d35aa9cc5173db49c7b56611972a0463ed9fdd50467cbf0e8d0201138487856004015485604051611e1d93929190614c0b565b60405180910390a3505050505050565b600760009054906101000a900460ff1681565b611e717f66778c815bca9067617f4f64e430a0a08f70ab5dd2654c328c1f658d54a8c833611e6c613194565b612312565b611eb0576040517f08c379a0000000000000000000000000000000000000000000000000000000008152600401611ea790614b07565b60405180910390fd5b611eb86118da565b15611ef8576040517f08c379a0000000000000000000000000000000000000000000000000000000008152600401611eef906149c7565b60405180910390fd5b611f00613346565b565b611f337f66778c815bca9067617f4f64e430a0a08f70ab5dd2654c328c1f658d54a8c833611f2e613194565b612312565b611f72576040517f08c379a0000000000000000000000000000000000000000000000000000000008152600401611f6990614b07565b60405180910390fd5b816001806003811115611fae577f4e487b7100000000000000000000000000000000000000000000000000000000600052602160045260246000fd5b60036000848152602001908152602001600020600101600d9054906101000a900460ff16600381111561200a577f4e487b7100000000000000000000000000000000000000000000000000000000600052602160045260246000fd5b1461204a576040517f08c379a000000000000000000000000000000000000000000000000000000000815260040161204190614947565b60405180910390fd5b6000600360008681526020019081526020016000209050834261206d9190614cd2565b816002018190555061207d613194565b73ffffffffffffffffffffffffffffffffffffffff16857f7b68ee3a2f02e31f31b7f681d3d24573fb7b369f7e48bbffee23447bc1d52e4983600201546040516120c79190614bc7565b60405180910390a35050505050565b6121077f66778c815bca9067617f4f64e430a0a08f70ab5dd2654c328c1f658d54a8c833612102613194565b612312565b612146576040517f08c379a000000000000000000000000000000000000000000000000000000000815260040161213d90614b07565b60405180910390fd5b806001806003811115612182577f4e487b7100000000000000000000000000000000000000000000000000000000600052602160045260246000fd5b60036000848152602001908152602001600020600101600d9054906101000a900460ff1660038111156121de577f4e487b7100000000000000000000000000000000000000000000000000000000600052602160045260246000fd5b1461221e576040517f08c379a000000000000000000000000000000000000000000000000000000000815260040161221590614947565b60405180910390fd5b6003806000858152602001908152602001600020600101600d6101000a81548160ff0219169083600381111561227d577f4e487b7100000000000000000000000000000000000000000000000000000000600052602160045260246000fd5b021790555061228a613194565b73ffffffffffffffffffffffffffffffffffffffff16837f5e6d44101742585a96649a62d75df02e5e37141eb54bdc0cbd1a945209891e4060405160405180910390a3505050565b60006122de60046130b7565b905090565b600061230a82600160008681526020019081526020016000206133e990919063ffffffff16565b905092915050565b600080600084815260200190815260200160002060000160008373ffffffffffffffffffffffffffffffffffffffff1673ffffffffffffffffffffffffffffffffffffffff16815260200190815260200160002060009054906101000a900460ff16905092915050565b612384613194565b73ffffffffffffffffffffffffffffffffffffffff16600260019054906101000a900473ffffffffffffffffffffffffffffffffffffffff1673ffffffffffffffffffffffffffffffffffffffff1614612413576040517f08c379a000000000000000000000000000000000000000000000000000000000815260040161240a90614b87565b60405180910390fd5b806009541015612458576040517f08c379a000000000000000000000000000000000000000000000000000000000815260040161244f90614b67565b60405180910390fd5b61246d8160095461313f90919063ffffffff16565b600981905550600260019054906101000a900473ffffffffffffffffffffffffffffffffffffffff1673ffffffffffffffffffffffffffffffffffffffff166108fc829081150290604051600060405180830381858888f193505050501580156124db573d6000803e3d6000fd5b507f609175abb7f12481e4f200d1ef4fc834e6caac3d9eadba42d664352f6d0932ca8160405161250b9190614bc7565b60405180910390a150565b60008060036000858152602001908152602001600020905060006005600086815260200190815260200160002060008573ffffffffffffffffffffffffffffffffffffffff1673ffffffffffffffffffffffffffffffffffffffff1681526020019081526020016000209050600081600101541180156125c957508160010160089054906101000a900463ffffffff1663ffffffff168160000160019054906101000a900463ffffffff1663ffffffff16145b9250505092915050565b6000801b81565b6000806003600084815260200190815260200160002090506002600381111561262c577f4e487b7100000000000000000000000000000000000000000000000000000000600052602160045260246000fd5b81600101600d9054906101000a900460ff166003811115612676577f4e487b7100000000000000000000000000000000000000000000000000000000600052602160045260246000fd5b1480156126b2575060008160050160008360010160089054906101000a900463ffffffff1663ffffffff16815260200190815260200160002054145b915050919050565b606481565b6000801b6126d4816126cf613194565b613403565b81600260016101000a81548173ffffffffffffffffffffffffffffffffffffffff021916908373ffffffffffffffffffffffffffffffffffffffff1602179055505050565b6000612736600160008481526020019081526020016000206134a0565b9050919050565b61274782826134b5565b61276c816001600085815260200190815260200160002061324890919063ffffffff16565b505050565b6127796118da565b156127b9576040517f08c379a00000000000000000000000000000000000000000000000000000000081526004016127b0906149c7565b60405180910390fd5b6127d83373ffffffffffffffffffffffffffffffffffffffff16613181565b15612818576040517f08c379a000000000000000000000000000000000000000000000000000000000815260040161280f90614a47565b60405180910390fd5b3273ffffffffffffffffffffffffffffffffffffffff163373ffffffffffffffffffffffffffffffffffffffff1614612886576040517f08c379a000000000000000000000000000000000000000000000000000000000815260040161287d90614b47565b60405180910390fd5b8160018060038111156128c2577f4e487b7100000000000000000000000000000000000000000000000000000000600052602160045260246000fd5b60036000848152602001908152602001600020600101600d9054906101000a900460ff16600381111561291e577f4e487b7100000000000000000000000000000000000000000000000000000000600052602160045260246000fd5b1461295e576040517f08c379a000000000000000000000000000000000000000000000000000000000815260040161295590614947565b60405180910390fd5b838363ffffffff166008543410156129ab576040517f08c379a00000000000000000000000000000000000000000000000000000000081526004016129a290614b27565b60405180910390fd5b600060036000848152602001908152602001600020905060006005600085815260200190815260200160002060006129e1613194565b73ffffffffffffffffffffffffffffffffffffffff1673ffffffffffffffffffffffffffffffffffffffff168152602001908152602001600020905042826002015411612a63576040517f08c379a0000000000000000000000000000000000000000000000000000000008152600401612a5a90614aa7565b60405180910390fd5b8160010160009054906101000a900463ffffffff1663ffffffff16831015612ac0576040517f08c379a0000000000000000000000000000000000000000000000000000000008152600401612ab790614ae7565b60405180910390fd5b6000612aef8360010160049054906101000a900463ffffffff1663ffffffff16856134de90919063ffffffff16565b14612b2f576040517f08c379a0000000000000000000000000000000000000000000000000000000008152600401612b2690614987565b60405180910390fd5b6000816001015414612b76576040517f08c379a0000000000000000000000000000000000000000000000000000000008152600401612b6d90614ac7565b60405180910390fd5b6000600560008a81526020019081526020016000206000612b95613194565b73ffffffffffffffffffffffffffffffffffffffff1673ffffffffffffffffffffffffffffffffffffffff1681526020019081526020016000209050878160000160016101000a81548163ffffffff021916908363ffffffff1602179055503481600101819055506000600360008b81526020019081526020016000209050612c2b34826003015461327890919063ffffffff16565b8160030181905550612c61348260050160008c63ffffffff1681526020019081526020016000205461327890919063ffffffff16565b8160050160008b63ffffffff16815260200190815260200160002081905550612cd88a60066000612c90613194565b73ffffffffffffffffffffffffffffffffffffffff1673ffffffffffffffffffffffffffffffffffffffff1681526020019081526020016000206134f490919063ffffffff16565b50612ce1613194565b73ffffffffffffffffffffffffffffffffffffffff168a7f74a1592512d62a2ed63741c3d6c0914cf996d7f1780d0ccdb7d792fd2d5259138b34604051612d29929190614be2565b60405180910390a350505050505050505050565b6060600080612d89600660008873ffffffffffffffffffffffffffffffffffffffff1673ffffffffffffffffffffffffffffffffffffffff16815260200190815260200160002061350e565b905060008490508582612d9c9190614db3565b851115612db2578582612daf9190614db3565b90505b60008167ffffffffffffffff811115612df4577f4e487b7100000000000000000000000000000000000000000000000000000000600052604160045260246000fd5b604051908082528060200260200182016040528015612e225781602001602082028036833780820191505090505b50905060005b82811015612ee457612e8c8189612e3f9190614cd2565b600660008c73ffffffffffffffffffffffffffffffffffffffff1673ffffffffffffffffffffffffffffffffffffffff16815260200190815260200160002061352390919063ffffffff16565b828281518110612ec5577f4e487b7100000000000000000000000000000000000000000000000000000000600052603260045260246000fd5b6020026020010181815250508080612edc90614f6a565b915050612e28565b50808288612ef29190614cd2565b94509450505050935093915050565b612f09613194565b73ffffffffffffffffffffffffffffffffffffffff16600260019054906101000a900473ffffffffffffffffffffffffffffffffffffffff1673ffffffffffffffffffffffffffffffffffffffff1614612f98576040517f08c379a0000000000000000000000000000000000000000000000000000000008152600401612f8f90614b87565b60405180910390fd5b605a8160ff1610158015612fb35750606460ff168160ff1611155b612ff2576040517f08c379a0000000000000000000000000000000000000000000000000000000008152600401612fe9906149e7565b60405180910390fd5b80600760006101000a81548160ff021916908360ff16021790555061302a600161301c60046130b7565b61327890919063ffffffff16565b7febd1601b294d34df68b55c9158c98be467c29b506f77bf833690ca92bae5557e600760009054906101000a900460ff166040516130689190614c42565b60405180910390a250565b60085481565b613083828261353d565b5050565b60006130af836000018373ffffffffffffffffffffffffffffffffffffffff1660001b61361d565b905092915050565b600081600001549050919050565b60007f7965db0b000000000000000000000000000000000000000000000000000000007bffffffffffffffffffffffffffffffffffffffffffffffffffffffff1916827bffffffffffffffffffffffffffffffffffffffffffffffffffffffff1916148061313857506131378261368d565b5b9050919050565b6000818361314d9190614db3565b905092915050565b600081836131639190614d59565b905092915050565b600081836131799190614d28565b905092915050565b600080823b905060008111915050919050565b600033905090565b6131a582610b26565b6131b6816131b1613194565b613403565b6131c0838361353d565b505050565b6131cd613194565b73ffffffffffffffffffffffffffffffffffffffff168173ffffffffffffffffffffffffffffffffffffffff161461323a576040517f08c379a000000000000000000000000000000000000000000000000000000000815260040161323190614ba7565b60405180910390fd5b61324482826136f7565b5050565b6000613270836000018373ffffffffffffffffffffffffffffffffffffffff1660001b6137d8565b905092915050565b600081836132869190614cd2565b905092915050565b6001816000016000828254019250508190555050565b6132ac6118da565b6132eb576040517f08c379a00000000000000000000000000000000000000000000000000000000081526004016132e290614907565b60405180910390fd5b6000600260006101000a81548160ff0219169083151502179055507f5db9ee0a495bf2e6ff9c91a7834c1ba4fdd244a5e8aa4e537bd38aeae4b073aa61332f613194565b60405161333c91906146f6565b60405180910390a1565b61334e6118da565b1561338e576040517f08c379a0000000000000000000000000000000000000000000000000000000008152600401613385906149c7565b60405180910390fd5b6001600260006101000a81548160ff0219169083151502179055507f62e78cea01bee320cd4e420270b5ea74000d11b0c9f74754ebdbfc544b05a2586133d2613194565b6040516133df91906146f6565b60405180910390a1565b60006133f8836000018361395e565b60001c905092915050565b61340d8282612312565b61349c576134328173ffffffffffffffffffffffffffffffffffffffff1660146139af565b6134408360001c60206139af565b6040516020016134519291906146bc565b6040516020818303038152906040526040517f08c379a00000000000000000000000000000000000000000000000000000000081526004016134939190614777565b60405180910390fd5b5050565b60006134ae82600001613ca9565b9050919050565b6134be82610b26565b6134cf816134ca613194565b613403565b6134d983836136f7565b505050565b600081836134ec9190614fb3565b905092915050565b6000613506836000018360001b61361d565b905092915050565b600061351c82600001613ca9565b9050919050565b6000613532836000018361395e565b60001c905092915050565b6135478282612312565b61361957600160008084815260200190815260200160002060000160008373ffffffffffffffffffffffffffffffffffffffff1673ffffffffffffffffffffffffffffffffffffffff16815260200190815260200160002060006101000a81548160ff0219169083151502179055506135be613194565b73ffffffffffffffffffffffffffffffffffffffff168173ffffffffffffffffffffffffffffffffffffffff16837f2f8788117e7eff1d82e926ec794901d17c78024a50270940304540a733656f0d60405160405180910390a45b5050565b60006136298383613cba565b613682578260000182908060018154018082558091505060019003906000526020600020016000909190919091505582600001805490508360010160008481526020019081526020016000208190555060019050613687565b600090505b92915050565b60007f01ffc9a7000000000000000000000000000000000000000000000000000000007bffffffffffffffffffffffffffffffffffffffffffffffffffffffff1916827bffffffffffffffffffffffffffffffffffffffffffffffffffffffff1916149050919050565b6137018282612312565b156137d457600080600084815260200190815260200160002060000160008373ffffffffffffffffffffffffffffffffffffffff1673ffffffffffffffffffffffffffffffffffffffff16815260200190815260200160002060006101000a81548160ff021916908315150217905550613779613194565b73ffffffffffffffffffffffffffffffffffffffff168173ffffffffffffffffffffffffffffffffffffffff16837ff6391f5c32d9c69d2a47ea670b442974b53935d1edc7fd64eb21e047a839171b60405160405180910390a45b5050565b6000808360010160008481526020019081526020016000205490506000811461395257600060018261380a9190614db3565b90506000600186600001805490506138229190614db3565b90508181146138dd576000866000018281548110613869577f4e487b7100000000000000000000000000000000000000000000000000000000600052603260045260246000fd5b90600052602060002001549050808760000184815481106138b3577f4e487b7100000000000000000000000000000000000000000000000000000000600052603260045260246000fd5b90600052602060002001819055508387600101600083815260200190815260200160002081905550505b85600001805480613917577f4e487b7100000000000000000000000000000000000000000000000000000000600052603160045260246000fd5b600190038181906000526020600020016000905590558560010160008681526020019081526020016000206000905560019350505050613958565b60009150505b92915050565b600082600001828154811061399c577f4e487b7100000000000000000000000000000000000000000000000000000000600052603260045260246000fd5b9060005260206000200154905092915050565b6060600060028360026139c29190614d59565b6139cc9190614cd2565b67ffffffffffffffff811115613a0b577f4e487b7100000000000000000000000000000000000000000000000000000000600052604160045260246000fd5b6040519080825280601f01601f191660200182016040528015613a3d5781602001600182028036833780820191505090505b5090507f300000000000000000000000000000000000000000000000000000000000000081600081518110613a9b577f4e487b7100000000000000000000000000000000000000000000000000000000600052603260045260246000fd5b60200101907effffffffffffffffffffffffffffffffffffffffffffffffffffffffffffff1916908160001a9053507f780000000000000000000000000000000000000000000000000000000000000081600181518110613b25577f4e487b7100000000000000000000000000000000000000000000000000000000600052603260045260246000fd5b60200101907effffffffffffffffffffffffffffffffffffffffffffffffffffffffffffff1916908160001a90535060006001846002613b659190614d59565b613b6f9190614cd2565b90505b6001811115613c5b577f3031323334353637383961626364656600000000000000000000000000000000600f861660108110613bd7577f4e487b7100000000000000000000000000000000000000000000000000000000600052603260045260246000fd5b1a60f81b828281518110613c14577f4e487b7100000000000000000000000000000000000000000000000000000000600052603260045260246000fd5b60200101907effffffffffffffffffffffffffffffffffffffffffffffffffffffffffffff1916908160001a905350600485901c945080613c5490614f0e565b9050613b72565b5060008414613c9f576040517f08c379a0000000000000000000000000000000000000000000000000000000008152600401613c96906148a7565b60405180910390fd5b8091505092915050565b600081600001805490509050919050565b600080836001016000848152602001908152602001600020541415905092915050565b828054613ce990614f38565b90600052602060002090601f016020900481019282613d0b5760008555613d52565b82601f10613d2457803560ff1916838001178555613d52565b82800160010185558215613d52579182015b82811115613d51578235825591602001919060010190613d36565b5b509050613d5f9190613d63565b5090565b5b80821115613d7c576000816000905550600101613d64565b5090565b600081359050613d8f8161564b565b92915050565b600081359050613da481615662565b92915050565b600081359050613db981615679565b92915050565b60008083601f840112613dd157600080fd5b8235905067ffffffffffffffff811115613dea57600080fd5b602083019150836001820283011115613e0257600080fd5b9250929050565b600081359050613e1881615690565b92915050565b600081359050613e2d816156a7565b92915050565b600081359050613e42816156be565b92915050565b600060208284031215613e5a57600080fd5b6000613e6884828501613d80565b91505092915050565b600080600060608486031215613e8657600080fd5b6000613e9486828701613d80565b9350506020613ea586828701613e09565b9250506040613eb686828701613e09565b9150509250925092565b600060208284031215613ed257600080fd5b6000613ee084828501613d95565b91505092915050565b60008060408385031215613efc57600080fd5b6000613f0a85828601613d95565b9250506020613f1b85828601613d80565b9150509250929050565b60008060408385031215613f3857600080fd5b6000613f4685828601613d95565b9250506020613f5785828601613e09565b9150509250929050565b600060208284031215613f7357600080fd5b6000613f8184828501613daa565b91505092915050565b600080600080600060808688031215613fa257600080fd5b600086013567ffffffffffffffff811115613fbc57600080fd5b613fc888828901613dbf565b95509550506020613fdb88828901613e1e565b9350506040613fec88828901613e1e565b9250506060613ffd88828901613e09565b9150509295509295909350565b60006020828403121561401c57600080fd5b600061402a84828501613e09565b91505092915050565b6000806040838503121561404657600080fd5b600061405485828601613e09565b925050602061406585828601613d80565b9150509250929050565b6000806040838503121561408257600080fd5b600061409085828601613e09565b92505060206140a185828601613e09565b9150509250929050565b600080604083850312156140be57600080fd5b60006140cc85828601613e09565b92505060206140dd85828601613e1e565b9150509250929050565b6000602082840312156140f957600080fd5b600061410784828501613e33565b91505092915050565b600061411c8383614680565b60208301905092915050565b61413181614e1b565b82525050565b600061414282614c82565b61414c8185614ca5565b935061415783614c5d565b8060005b8381101561418857815161416f8882614110565b975061417a83614c98565b92505060018101905061415b565b5085935050505092915050565b61419e81614e2d565b82525050565b6141ad81614e39565b82525050565b6141bc81614ec9565b82525050565b60006141cd82614c8d565b6141d78185614cb6565b93506141e7818560208601614edb565b6141f0816150a0565b840191505092915050565b600061420682614c8d565b6142108185614cc7565b9350614220818560208601614edb565b80840191505092915050565b6000815461423981614f38565b6142438186614cb6565b9450600182166000811461425e5760018114614270576142a3565b60ff19831686526020860193506142a3565b61427985614c6d565b60005b8381101561429b5781548189015260018201915060208101905061427c565b808801955050505b50505092915050565b60006142b9601d83614cb6565b91506142c4826150b1565b602082019050919050565b60006142dc602083614cb6565b91506142e7826150da565b602082019050919050565b60006142ff601a83614cb6565b915061430a82615103565b602082019050919050565b6000614322602183614cb6565b915061432d8261512c565b604082019050919050565b6000614345601483614cb6565b91506143508261517b565b602082019050919050565b6000614368601d83614cb6565b9150614373826151a4565b602082019050919050565b600061438b601a83614cb6565b9150614396826151cd565b602082019050919050565b60006143ae602b83614cb6565b91506143b9826151f6565b604082019050919050565b60006143d1602083614cb6565b91506143dc82615245565b602082019050919050565b60006143f4602583614cb6565b91506143ff8261526e565b604082019050919050565b6000614417601083614cb6565b9150614422826152bd565b602082019050919050565b600061443a602283614cb6565b9150614445826152e6565b604082019050919050565b600061445d601e83614cb6565b915061446882615335565b602082019050919050565b6000614480601983614cb6565b915061448b8261535e565b602082019050919050565b60006144a3601e83614cb6565b91506144ae82615387565b602082019050919050565b60006144c6602083614cb6565b91506144d1826153b0565b602082019050919050565b60006144e9601a83614cb6565b91506144f4826153d9565b602082019050919050565b600061450c601983614cb6565b915061451782615402565b602082019050919050565b600061452f601c83614cb6565b915061453a8261542b565b602082019050919050565b6000614552601783614cb6565b915061455d82615454565b602082019050919050565b6000614575601883614cb6565b91506145808261547d565b602082019050919050565b6000614598601c83614cb6565b91506145a3826154a6565b602082019050919050565b60006145bb602483614cb6565b91506145c6826154cf565b604082019050919050565b60006145de602683614cb6565b91506145e98261551e565b604082019050919050565b6000614601601783614cc7565b915061460c8261556d565b601782019050919050565b6000614624601b83614cb6565b915061462f82615596565b602082019050919050565b6000614647601183614cc7565b9150614652826155bf565b601182019050919050565b600061466a602f83614cb6565b9150614675826155e8565b604082019050919050565b61468981614ea2565b82525050565b61469881614ea2565b82525050565b6146a781614eac565b82525050565b6146b681614ebc565b82525050565b60006146c7826145f4565b91506146d382856141fb565b91506146de8261463a565b91506146ea82846141fb565b91508190509392505050565b600060208201905061470b6000830184614128565b92915050565b6000604082019050818103600083015261472b8185614137565b905061473a602083018461468f565b9392505050565b60006020820190506147566000830184614195565b92915050565b600060208201905061477160008301846141a4565b92915050565b6000602082019050818103600083015261479181846141c2565b905092915050565b60006101208201905081810360008301526147b4818c6141c2565b90506147c3602083018b61469e565b6147d0604083018a61469e565b6147dd606083018961469e565b6147ea60808301886146ad565b6147f760a08301876141b3565b61480460c083018661468f565b61481160e083018561468f565b61481f61010083018461468f565b9a9950505050505050505050565b600060a0820190508181036000830152614847818861422c565b9050614856602083018761469e565b614863604083018661469e565b61487060608301856146ad565b61487d608083018461468f565b9695505050505050565b600060208201905081810360008301526148a0816142ac565b9050919050565b600060208201905081810360008301526148c0816142cf565b9050919050565b600060208201905081810360008301526148e0816142f2565b9050919050565b6000602082019050818103600083015261490081614315565b9050919050565b6000602082019050818103600083015261492081614338565b9050919050565b600060208201905081810360008301526149408161435b565b9050919050565b600060208201905081810360008301526149608161437e565b9050919050565b60006020820190508181036000830152614980816143a1565b9050919050565b600060208201905081810360008301526149a0816143c4565b9050919050565b600060208201905081810360008301526149c0816143e7565b9050919050565b600060208201905081810360008301526149e08161440a565b9050919050565b60006020820190508181036000830152614a008161442d565b9050919050565b60006020820190508181036000830152614a2081614450565b9050919050565b60006020820190508181036000830152614a4081614473565b9050919050565b60006020820190508181036000830152614a6081614496565b9050919050565b60006020820190508181036000830152614a80816144b9565b9050919050565b60006020820190508181036000830152614aa0816144dc565b9050919050565b60006020820190508181036000830152614ac0816144ff565b9050919050565b60006020820190508181036000830152614ae081614522565b9050919050565b60006020820190508181036000830152614b0081614545565b9050919050565b60006020820190508181036000830152614b2081614568565b9050919050565b60006020820190508181036000830152614b408161458b565b9050919050565b60006020820190508181036000830152614b60816145ae565b9050919050565b60006020820190508181036000830152614b80816145d1565b9050919050565b60006020820190508181036000830152614ba081614617565b9050919050565b60006020820190508181036000830152614bc08161465d565b9050919050565b6000602082019050614bdc600083018461468f565b92915050565b6000604082019050614bf7600083018561469e565b614c04602083018461468f565b9392505050565b6000606082019050614c20600083018661469e565b614c2d602083018561468f565b614c3a604083018461468f565b949350505050565b6000602082019050614c5760008301846146ad565b92915050565b6000819050602082019050919050565b60008190508160005260206000209050919050565b600081519050919050565b600081519050919050565b6000602082019050919050565b600082825260208201905092915050565b600082825260208201905092915050565b600081905092915050565b6000614cdd82614ea2565b9150614ce883614ea2565b9250827fffffffffffffffffffffffffffffffffffffffffffffffffffffffffffffffff03821115614d1d57614d1c614fe4565b5b828201905092915050565b6000614d3382614ea2565b9150614d3e83614ea2565b925082614d4e57614d4d615013565b5b828204905092915050565b6000614d6482614ea2565b9150614d6f83614ea2565b9250817fffffffffffffffffffffffffffffffffffffffffffffffffffffffffffffffff0483118215151615614da857614da7614fe4565b5b828202905092915050565b6000614dbe82614ea2565b9150614dc983614ea2565b925082821015614ddc57614ddb614fe4565b5b828203905092915050565b6000614df282614ebc565b9150614dfd83614ebc565b925082821015614e1057614e0f614fe4565b5b828203905092915050565b6000614e2682614e82565b9050919050565b60008115159050919050565b6000819050919050565b60007fffffffff0000000000000000000000000000000000000000000000000000000082169050919050565b6000819050614e7d82615637565b919050565b600073ffffffffffffffffffffffffffffffffffffffff82169050919050565b6000819050919050565b600063ffffffff82169050919050565b600060ff82169050919050565b6000614ed482614e6f565b9050919050565b60005b83811015614ef9578082015181840152602081019050614ede565b83811115614f08576000848401525b50505050565b6000614f1982614ea2565b91506000821415614f2d57614f2c614fe4565b5b600182039050919050565b60006002820490506001821680614f5057607f821691505b60208210811415614f6457614f63615071565b5b50919050565b6000614f7582614ea2565b91507fffffffffffffffffffffffffffffffffffffffffffffffffffffffffffffffff821415614fa857614fa7614fe4565b5b600182019050919050565b6000614fbe82614ea2565b9150614fc983614ea2565b925082614fd957614fd8615013565b5b828206905092915050565b7f4e487b7100000000000000000000000000000000000000000000000000000000600052601160045260246000fd5b7f4e487b7100000000000000000000000000000000000000000000000000000000600052601260045260246000fd5b7f4e487b7100000000000000000000000000000000000000000000000000000000600052602160045260246000fd5b7f4e487b7100000000000000000000000000000000000000000000000000000000600052602260045260246000fd5b6000601f19601f8301169050919050565b7f436f756e63696c203a204449445f4e4f545f5041525449434950415445000000600082015250565b7f537472696e67733a20686578206c656e67746820696e73756666696369656e74600082015250565b7f436f756e63696c203a20414c52454144595f524546554e444544000000000000600082015250565b7f436f756e63696c203a205552495f53484f554c445f4e4f545f42455f454d505460008201527f5900000000000000000000000000000000000000000000000000000000000000602082015250565b7f5061757361626c653a206e6f7420706175736564000000000000000000000000600082015250565b7f436f756e63696c203a20444541444c494e455f4e4f545f504153534544000000600082015250565b7f436f756e63696c203a2041545f494e56414c49445f5354414745000000000000600082015250565b7f436f756e63696c203a2053434f52455f4d554c5449504c455f53484f554c445f60008201527f42455f4e4f4e5f5a45524f000000000000000000000000000000000000000000602082015250565b7f436f756e63696c203a20494e56414c49445f53434f52455f4d554c5449504c45600082015250565b7f436f756e63696c203a20444541444c494e455f53484f554c445f42455f4e4f4e60008201527f5f5a45524f000000000000000000000000000000000000000000000000000000602082015250565b7f5061757361626c653a2070617573656400000000000000000000000000000000600082015250565b7f436f756e63696c203a205245574152445f524154455f4f55545f4f465f52414e60008201527f4745000000000000000000000000000000000000000000000000000000000000602082015250565b7f436f756e63696c203a20494e56414c49445f4d494e424554414d4f554e540000600082015250565b7f436f756e63696c203a20524557415244535f434c41494d454400000000000000600082015250565b7f436f756e63696c203a20434f4e54524143545f4e4f545f414c4c4f5745440000600082015250565b7f436f756e63696c203a204e4f545f454c494749424c455f464f525f434c41494d600082015250565b7f436f756e63696c203a20554e4b4e4f574e5f4d415443485f4944000000000000600082015250565b7f436f756e63696c203a20444541444c494e455f50415353454400000000000000600082015250565b7f436f756e63696c203a204245545f504c414345445f414c524541445900000000600082015250565b7f436f756e63696c203a20494e56414c49445f53434f5245000000000000000000600082015250565b7f436f756e63696c203a204d5553545f42455f554d504952450000000000000000600082015250565b7f436f756e63696c203a204245545f414d4f554e545f544f4f5f4c4f5700000000600082015250565b7f436f756e63696c203a2050524f58595f434f4e54524143545f4e4f545f414c4c60008201527f4f57454400000000000000000000000000000000000000000000000000000000602082015250565b7f436f756e63696c203a20494e53554646494349454e545f54524541535552595f60008201527f414d4f554e540000000000000000000000000000000000000000000000000000602082015250565b7f416363657373436f6e74726f6c3a206163636f756e7420000000000000000000600082015250565b7f436f756e63696c203a204d5553545f42455f505245534944454e540000000000600082015250565b7f206973206d697373696e6720726f6c6520000000000000000000000000000000600082015250565b7f416363657373436f6e74726f6c3a2063616e206f6e6c792072656e6f756e636560008201527f20726f6c657320666f722073656c660000000000000000000000000000000000602082015250565b6004811061564857615647615042565b5b50565b61565481614e1b565b811461565f57600080fd5b50565b61566b81614e39565b811461567657600080fd5b50565b61568281614e43565b811461568d57600080fd5b50565b61569981614ea2565b81146156a457600080fd5b50565b6156b081614eac565b81146156bb57600080fd5b50565b6156c781614ebc565b81146156d257600080fd5b5056fea26469706673582212201c925cf7bcba6142aa46689ca6b163b6851deaf2131c46669163592ea7b6eb3364736f6c63430008040033",
  "immutableReferences": {},
  "source": "// SPDX-License-Identifier: MIT\npragma solidity ^0.8.4;\n\nimport \"@openzeppelin/contracts/utils/Context.sol\";\nimport \"@openzeppelin/contracts/access/AccessControlEnumerable.sol\";\nimport \"@openzeppelin/contracts/security/Pausable.sol\";\nimport \"@openzeppelin/contracts/utils/math/SafeMath.sol\";\nimport \"@openzeppelin/contracts/utils/Counters.sol\";\nimport \"@openzeppelin/contracts/utils/structs/EnumerableSet.sol\";\nimport \"./CouncilV1.sol\";\n\ncontract TournamentV1 is CouncilV1{\n    using SafeMath for uint256;\n    using Counters for Counters.Counter;\n    using EnumerableSet for EnumerableSet.UintSet;\n    \n    enum MatchStage{\n        INVALID,\n        CREATED,\n        COMPLETED,\n        FORFEITED\n    }\n\n    struct Match{\n        string uri;\n        uint32 minScore;\n        uint32 scoreMultiple;\n        uint32 winningScore;\n        uint8 rewardRate;\n        MatchStage stage;\n        uint256 deadline;\n        uint256 totalAmount;\n        uint256 rewardAmount;\n        mapping(uint256 => uint256) betsAtScores;\n    }\n\n    struct Bet{\n        bool claimed;\n        uint32 score;\n        uint256 amount;\n    }\n\n    mapping(uint256=>Match) public matches;\n    Counters.Counter private matchCounter;\n\n    mapping(uint256 => mapping(address => Bet)) private ledger;\n    mapping(address => EnumerableSet.UintSet) private userMatches;\n\n    uint8 public constant TOTAL_RATE = 100; \n    uint8 public rewardRate = 90; \n    uint256 public minBetAmount = 0.01 ether;\n\n    uint256 public treasuryAmount;\n\n    event MatchCreated(uint256 indexed matchId, address indexed umpire, string uri, uint32 minScore, uint32 scoreMultiple, uint8 rewardRate, uint256 deadline);\n    event DeadlineUpdated(uint256 indexed matchId, address indexed umpire, uint256 deadline);\n    event MatchForfeited(uint256 indexed matchId, address indexed umpire);\n    event MatchCompleted(uint256 indexed matchId, address indexed umpire, uint32 winningScore, uint256 rewardAmount, uint256 treasuryAmount);\n    event BetScore(uint256 indexed matchId, address indexed sender, uint32 score, uint256 amount);\n    event Claim(uint256 indexed matchId, address indexed sender, uint256 amount);\n    event Refund(uint256 indexed matchId, address indexed sender, uint256 amount);\n    event ClaimTreasury(uint256 amount);\n    event RewardRateUpdated(uint256 indexed matchId, uint8 rewardRate);\n    event MinimumBetAmountUpdated(uint256 minBetAmount);\n\n    constructor(address _president) \n    CouncilV1(_president)\n    {}\n    \n    function createMatch(string calldata _uri,uint32 _minScore,uint32 _scoreMultiple,uint256 _deadline) \n    external onlyUmpire returns(uint256) {\n        \n        require(bytes(_uri).length>0,\"Council : URI_SHOULD_NOT_BE_EMPTY\");\n        require(_scoreMultiple>0,\"Council : SCORE_MULTIPLE_SHOULD_BE_NON_ZERO\");\n        require(_deadline>0,\"Council : DEADLINE_SHOULD_BE_NON_ZERO\");\n\n        matchCounter.increment();\n        uint256 matchId = matchCounter.current();\n        Match storage m = matches[matchId];\n        m.uri = _uri;\n        m.minScore = _minScore;\n        m.scoreMultiple = _scoreMultiple;\n        m.deadline = block.timestamp+_deadline;\n        m.stage = MatchStage.CREATED;\n        m.rewardRate = rewardRate;\n        emit MatchCreated(matchId, _msgSender(), m.uri, m.minScore, m.scoreMultiple, m.rewardRate, m.deadline);\n        return matchId;\n    }\n\n    function updateDeadline(uint256 _matchId,uint256 _deadline) \n    external onlyUmpire atStage(_matchId,MatchStage.CREATED) {\n        Match storage m = matches[_matchId];\n        m.deadline = block.timestamp+_deadline;\n        emit DeadlineUpdated(_matchId, _msgSender(), m.deadline);\n    }\n\n    function forfeitMatch(uint256 _matchId) \n    external onlyUmpire atStage(_matchId,MatchStage.CREATED) {\n        matches[_matchId].stage = MatchStage.FORFEITED;\n        emit MatchForfeited(_matchId, _msgSender());\n    }\n\n    function endMatch(uint256 _matchId,uint32 _winningScore) \n    external onlyUmpire atStage(_matchId,MatchStage.CREATED) \n    {\n        require(_winningScore>0,\"Council : INVALID_SCORE\");\n        Match storage m = matches[_matchId];\n        require(block.timestamp > m.deadline, \"Council : DEADLINE_NOT_PASSED\");\n        m.winningScore = _winningScore;\n        m.stage = MatchStage.COMPLETED;\n        uint256 treasuryAmt=0;\n        if(isHouseWin(_matchId)){\n            treasuryAmt = m.totalAmount;\n        }else{\n            uint256 rewards = m.totalAmount.sub(m.betsAtScores[_winningScore]);\n            m.rewardAmount = rewards.mul(m.rewardRate).div(TOTAL_RATE);\n            treasuryAmt = rewards.mul(TOTAL_RATE-m.rewardRate).div(TOTAL_RATE);\n        }\n        treasuryAmount = treasuryAmount.add(treasuryAmt);\n        emit MatchCompleted(_matchId, _msgSender(), _winningScore, m.rewardAmount, treasuryAmt);\n    }\n\n    function betScore(uint256 _matchId,uint32 _score) \n    external \n    payable\n    whenNotPaused \n    notContract \n    atStage(_matchId,MatchStage.CREATED) \n    validBet(_matchId,_score) \n    {\n        Bet storage b = ledger[_matchId][_msgSender()];\n        b.score = _score;\n        b.amount = msg.value;\n        \n        Match storage m = matches[_matchId];\n        m.totalAmount = m.totalAmount.add(msg.value);\n        m.betsAtScores[_score] = m.betsAtScores[_score].add(msg.value);\n\n        userMatches[_msgSender()].add(_matchId);\n\n        emit BetScore(_matchId, _msgSender(), _score, msg.value);\n    }\n\n    function claim(uint256 _matchId) external notContract validMatchId(_matchId) atStage(_matchId,MatchStage.COMPLETED){  \n        Bet storage b = ledger[_matchId][_msgSender()];\n        require(!b.claimed, \"Council : REWARDS_CLAIMED\");\n        require(claimable(_matchId, _msgSender()), \"Council : NOT_ELIGIBLE_FOR_CLAIM\");\n        Match storage m = matches[_matchId];\n        uint256 claimedAmount = b.amount.add(b.amount.mul(m.rewardAmount).div(m.betsAtScores[m.winningScore]));\n        b.claimed = true;\n        payable(_msgSender()).transfer(claimedAmount);\n        emit Claim(_matchId, _msgSender(), claimedAmount);\n    }\n\n    function claimable(uint256 _matchId,address _user) public view returns(bool) {\n        Match storage m = matches[_matchId];\n        Bet storage b = ledger[_matchId][_user];\n        return b.amount>0 && b.score == m.winningScore;\n    }\n\n    function getRewardMultiplier(uint256 _matchId,uint32 _score) public view validMatchId(_matchId) returns(uint256) {\n        Match storage m = matches[_matchId];\n        uint256 rewards = m.totalAmount.sub(m.betsAtScores[_score]);\n        uint256 rewardAmount = rewards.mul(m.rewardRate).div(TOTAL_RATE);\n        return rewardAmount.mul(10000).div(m.betsAtScores[_score]);\n    }\n    \n    /**\n     * @notice House wins when no participant had bet on the final score\n     */\n    function isHouseWin(uint256 _matchId) public view returns(bool){\n        Match storage m = matches[_matchId];\n        return m.stage==MatchStage.COMPLETED && m.betsAtScores[m.winningScore]==0;\n    }\n\n    function refund(uint256 _matchId) external notContract validMatchId(_matchId) atStage(_matchId,MatchStage.FORFEITED){  \n        Bet storage b = ledger[_matchId][_msgSender()];\n        require(b.amount>0, \"Council : DID_NOT_PARTICIPATE\");\n        require(!b.claimed, \"Council : ALREADY_REFUNDED\");\n        b.claimed=true;\n        payable(_msgSender()).transfer(b.amount);\n        emit Refund(_matchId, _msgSender(), b.amount);\n    }\n\n    function getMatchCount() external view returns(uint){\n        return matchCounter.current();\n    }\n\n    function getBetsAtScore(uint256 _matchId,uint256 _score) external view returns (uint256){\n        return matches[_matchId].betsAtScores[_score];\n    }\n\n    function isDeadlinePassed(uint256 _matchId) external validMatchId(_matchId) view returns(bool) {\n        return block.timestamp>matches[_matchId].deadline;\n    }\n\n    function getUserMatches(address _user,uint256 _cursor,uint256 _size) external view returns (uint256[] memory, uint256) {\n        uint256 numOfMatches = userMatches[_user].length();\n        uint256 length = _size;\n        if (_size > numOfMatches - _cursor) {\n            length = numOfMatches - _cursor;\n        }\n        uint256[] memory matchIds = new uint256[](length);\n        for (uint256 i = 0; i < length; i++) {\n            matchIds[i] = userMatches[_user].at(_cursor + i);\n        }\n        return (matchIds, _cursor + length);\n    }\n\n    function setRewardRate(uint8 _rewardRate) external onlyPresident {\n        require(_rewardRate >= 90 && _rewardRate <= TOTAL_RATE, \"Council : REWARD_RATE_OUT_OF_RANGE\");\n        rewardRate = _rewardRate;\n        emit RewardRateUpdated(matchCounter.current().add(1), rewardRate);\n    }\n\n    function setMinBetAmount(uint256 _minBetAmount) external onlyPresident {\n        require(_minBetAmount>0, \"Council : INVALID_MINBETAMOUNT\");\n        minBetAmount = _minBetAmount;\n        emit MinimumBetAmountUpdated(minBetAmount);\n    }\n\n    function claimTreasury(uint256 _amount) external onlyPresident {\n        require(treasuryAmount>=_amount,\"Council : INSUFFICIENT_TREASURY_AMOUNT\");\n        treasuryAmount = treasuryAmount.sub(_amount);\n        payable(president).transfer(_amount);\n        emit ClaimTreasury(_amount);\n    }\n\n    function pause() external onlyUmpire whenNotPaused {\n        super._pause();\n    }\n\n    function unpause() external onlyUmpire whenPaused {\n        super._unpause();\n    }\n\n    modifier validMatchId(uint256 _matchId){\n        require(_matchId>0 && _matchId<=matchCounter.current(),\"Council : UNKNOWN_MATCH_ID\");\n        _;\n    }\n\n    modifier validBet(uint256 _matchId,uint256 _score){\n        require(msg.value >= minBetAmount, \"Council : BET_AMOUNT_TOO_LOW\");\n        Match storage m = matches[_matchId];\n        Bet storage b = ledger[_matchId][_msgSender()];\n        require(m.deadline > block.timestamp, \"Council : DEADLINE_PASSED\");\n        require(_score >= m.minScore , \"Council : INVALID_SCORE\");\n        require(_score.mod(m.scoreMultiple)==0, \"Council : INVALID_SCORE_MULTIPLE\");\n        require(b.amount==0, \"Council : BET_PLACED_ALREADY\");\n        _;\n    }\n\n    modifier atStage(uint256 _matchId, MatchStage _stage){\n        require(matches[_matchId].stage==_stage,\"Council : AT_INVALID_STAGE\");\n        _;\n    }\n    \n}",
  "sourcePath": "/Users/shrini-3774/Documents/blockchain/crycto/smart-contracts/contracts/prediction/TournamentV1.sol",
  "compiler": {
    "name": "solc",
    "version": "0.8.4+commit.c7e474f2.Emscripten.clang"
  },
  "schemaVersion": "3.3.4",
  "updatedAt": "2021-07-29T06:12:41.162Z",
  "networkType": "ethereum",
  "devdoc": {
    "kind": "dev",
    "methods": {
      "getRoleAdmin(bytes32)": {
        "details": "Returns the admin role that controls `role`. See {grantRole} and {revokeRole}. To change a role's admin, use {_setRoleAdmin}."
      },
      "getRoleMember(bytes32,uint256)": {
        "details": "Returns one of the accounts that have `role`. `index` must be a value between 0 and {getRoleMemberCount}, non-inclusive. Role bearers are not sorted in any particular way, and their ordering may change at any point. WARNING: When using {getRoleMember} and {getRoleMemberCount}, make sure you perform all queries on the same block. See the following https://forum.openzeppelin.com/t/iterating-over-elements-on-enumerableset-in-openzeppelin-contracts/2296[forum post] for more information."
      },
      "getRoleMemberCount(bytes32)": {
        "details": "Returns the number of accounts that have `role`. Can be used together with {getRoleMember} to enumerate all bearers of a role."
      },
      "grantRole(bytes32,address)": {
        "details": "Overload {grantRole} to track enumerable memberships"
      },
      "hasRole(bytes32,address)": {
        "details": "Returns `true` if `account` has been granted `role`."
      },
      "paused()": {
        "details": "Returns true if the contract is paused, and false otherwise."
      },
      "renounceRole(bytes32,address)": {
        "details": "Overload {renounceRole} to track enumerable memberships"
      },
      "revokeRole(bytes32,address)": {
        "details": "Overload {revokeRole} to track enumerable memberships"
      },
      "supportsInterface(bytes4)": {
        "details": "See {IERC165-supportsInterface}."
      }
    },
    "version": 1
  },
  "userdoc": {
    "kind": "user",
    "methods": {
      "isHouseWin(uint256)": {
        "notice": "House wins when no participant had bet on the final score"
      }
    },
    "version": 1
  }
}